S01000004C6162395F50574D2E7372656379
S11300004CC0000067C0000065C0000063C0000071
S113001061C000005FC000005DC000005BC0000064
S113002059C0000057C0000055C0000053C0000074
S113003051C00000EAC000004DC000004BC00000E9
S113004049C0000047C0000045C0000043C0000094
S113005041C000003FC000003DC000003BC00000A4
S113006039C0000037C0000035C0000033C00000B4
S113007031C000002FC000002DC000002BC00000C4
S113008029C0000027C0000025C000004A027601F4
S11300904A0287019901AB01B70111241FBECFEFBA
S11300A0D0E4DEBFCDBF11E0A0E0B1E0EAEFF7E0BD
S11300B000E00BBF02C007900D92A432B107D9F73C
S11300C021E0A4E2B1E001C01D92AF32B207E1F732
S11300D0F9D191C395CFCF92DF92EF92FF926B014A
S11300E07C019B01AC0160912601709127018091F4
S11300F0280190912901FDD1882309F452C020E000
S113010030E0A901C701B601F4D1811106C0E1E9CB
S1130110F0E080818870808305C0E1E9F0E08081AF
S11301208360808328E539E344E75FE3C701B601D0
S1130130E0D188233CF48FEF9FEF90939900809354
S1130140980023C020E034E244EF56E4C701B6012E
S1130150E2D218162CF4109299001092980015C04F
S113016020E030E040E053E4C701B601D8D29B015F
S1130170AC0160E074E284EF9AE4BFD126D261500E
S113018071097093990060939800109295001092F1
S11301909400C0922601D0922701E0922801F092A7
S11301A02901FF90EF90DF90CF90089580E4809331
S11301B090008BE08093910060E070E0CB018BCFE6
S11301C008958BE0809381008DE790E090938900FF
S11301D08093880082E080936F00109285001092D3
S11301E084008091000190910101A0910201B091DD
S11301F0030180932A0190932B01A0932C01B093C7
S11302002D018FB780688FBF08951F920F920FB68C
S11302100F9211248F939F93AF93BF9380912A01E0
S113022090912B01A0912C01B0912D010197A1096E
S1130230B10980932A0190932B01A0932C01B093D0
S11302402D01892B8A2B8B2B99F481E080932E012D
S11302508091000190910101A0910201B0910301EC
S113026080932A0190932B01A0932C01B0932D012C
S1130270BF91AF919F918F910F900FBE0F901F90E0
S1130280189560930001709301018093020190938B
S1130290030160932A0170932B0180932C019093A6
S11302A02D010895CF93DF93CDB7DEB7A0970FB696
S11302B0F894DEBF0FBECDBFAC0180B1817090B1A8
S11302C09095927020B12095247030E2E4E0F1E042
S11302D0DE01119601900D923A95E1F747305105F0
S11302E008F04FC0FA01EA5BFF4F7CC2811106C0DF
S11302F09111DEC0222309F44BC0DAC0992321F006
S1130300222309F467C0D4C0211187C0D1C0882337
S113031031F0992349F0222309F49CC05BC0911168
S113032059C02223A9F156C0211177C041E050E001
S1130330BFC0882339F091110AC021119BC041E04C
S113034050E0B6C0911169C0222311F166C0222386
S113035009F440C062C0882309F49FC0992309F4BA
S11303609FC0222309F476C041E050E0A1C0882355
S113037009F499C091119AC021117CC041E050E068
S113038097C060E070E0CB01A6DE40E050E090C092
S113039080912501882359F010922501109224019F
S11303A060E070E0CB0197DE42E050E081C081E084
S11303B08093250180912401FE0194E0899FE00D42
S11303C0F11D1124618172818381948184DE42E074
S11303D050E06EC080912401873088F48F5F809351
S11303E02401FE0194E0899FE00DF11D1124618137
S11303F07281838194816FDE43E050E059C0FE0135
S113040094E0899FE00DF11D112461817281838143
S1130410948161DE43E050E04BC080912401882345
S113042089F0815080932401FE0194E0899FE00DBE
S1130430F11D112461817281838194814CDE44E039
S113044050E036C069817A818B819C8144DE44E02E
S113045050E02EC080912401FE0194E0899FE00DBC
S1130460F11D1124618172818381948134DE45E020
S113047050E01EC080912401FE0194E0899FE00DAC
S1130480F11D1124618172818381948124DE46E00F
S113049050E00EC041E050E00BC041E050E008C025
S11304A041E050E005C041E050E002C041E050E0CE
S11304B0CA01A0960FB6F894DEBF0FBECDBFDF9180
S11304C0CF91089511B88FEF82B980E484B915B83B
S11304D078DE6AEF70E080E090E0D3DE67DE80E0F3
S11304E090E0E0DE90912E019923E1F310922E0129
S11304F0F7CF9CD008F481E008950CD0D2C0CAD0C4
S113050040F0C1D030F021F45F3F19F0B3C0511175
S1130510FCC0B6C0D7D098F39923C9F35523B1F3DF
S1130520951B550BBB27AA2762177307840738F05E
S11305309F5F5F4F220F331F441FAA1FA9F333D0BD
S11305400E2E3AF0E0E830D091505040E695001C71
S1130550CAF729D0FE2F27D0660F771F881FBB1F2D
S1130560261737074807AB07B0E809F0BB0B802D07
S1130570BF01FF2793585F4F2AF09E3F510568F053
S113058079C0C3C05F3FECF3983EDCF38695779562
S11305906795B795F7959F5FC9F7880F911D969555
S11305A0879597F90895E1E0660F771F881FBB1FB1
S11305B0621773078407BA0720F0621B730B840B5E
S11305C0BA0BEE1F88F7E095089504D06894B11132
S11305D09CC008957FD088F09F5790F0B92F992739
S11305E0B751A0F0D1F0660F771F881F991F1AF03A
S11305F0BA95C9F712C0B13081F086D0B1E0089540
S113060083C0672F782F8827B85F39F0B93FCCF3C0
S1130610869577956795B395D9F73EF4909580952F
S1130620709561957F4F8F4F9F4F0895990F0008E4
S1130630550FAA0BE0E8FEEF16161706E807F907B0
S1130640C0F012161306E407F50798F0621B730B4B
S1130650840B950B39F40A2661F0232B242B252BCC
S113066021F408950A2609F4A140A6958FEF811D6F
S1130670811D089597F99F6780E870E060E0089510
S11306809FEF80EC089500240A94161617061806A6
S11306900906089500240A94121613061406050682
S11306A00895092E0394000C11F4882352F0BB0F13
S11306B040F4BF2B11F460FF04C06F5F7F4F8F4F76
S11306C09F4F089557FD9058440F551F59F05F3FB1
S11306D071F04795880F97FB991F61F09F3F79F060
S11306E087950895121613061406551FF2CF4695E2
S11306F0F1DF08C0161617061806991FF1CF869564
S11307007105610508940895E894BB276627772747
S1130710CB0197F908958ADF08F48FEF08950BD081
S1130720C0CFB1DF28F0B6DF18F0952309F0A2CFCF
S1130730A7CF1124EACFC6DFA0F3959FD1F3950F7D
S113074050E0551F629FF001729FBB27F00DB11D51
S1130750639FAA27F00DB11DAA1F649F6627B00DE1
S1130760A11D661F829F2227B00DA11D621F739FCA
S1130770B00DA11D621F839FA00D611D221F749FD8
S11307803327A00D611D231F849F600D211D822F1F
S1130790762F6A2F11249F5750408AF0E1F0882366
S11307A04AF0EE0FFF1FBB1F661F771F881F915073
S11307B05040A9F79E3F510570F05CCFA6CF5F3F34
S11307C0ECF3983EDCF3869577956795B795F795A6
S11307D0E7959F5FC1F7FE2B880F911D969587952E
S11307E097F90895EE0FFF1F0024001C0BBE07901D
S10D07F0F691E02D0994F894FFCF70
S11307FA01000000A4D082437BD49243A4D0A44332
S113080A719DAE430000C4430000DC43A4F0F643E8
S107081A00D00244C0
S9030000FC
