:100000000C9454000C9473000C9473000C947300C3
:100010000C9473000C9473000C9473000C94730094
:100020000C9473000C9473000C9473000C94730084
:100030000C9473000C94B3010C9473000C94730033
:100040000C9473000C9473000C9473000C94730064
:100050000C9473000C9473000C9473000C94730054
:100060000C9473000C9473000C9473000C94730044
:100070000C9473000C9473000C9473000C94730034
:100080000C9473000C9473000C9473008A028F021A
:10009000BF02C402000339034C037A034B048003FC
:1000A000A903E2031B04330411241FBECFEFD0E4E5
:1000B000DEBFCDBF11E0A0E0B1E0EEE4FCE000E087
:1000C0000BBF02C007900D92A233B107D9F721E010
:1000D000A2E3B1E001C01D92AD33B207E1F70E9487
:1000E00057040C9425060C940000CF93DF9300D0A6
:1000F0001F92CDB7DEB789837B836A8389818A307B
:1001000031F48A819B81BC018DE00E94750080ECF6
:1001100090E0FC018081882F90E080729927892BE4
:10012000B1F386EC90E02981FC01208380E090E02F
:100130000F900F900F90DF91CF9108950F931F9321
:10014000CF93DF9300D000D0CDB7DEB769837A8339
:100150008B839C838091370190913801A091390164
:10016000B0913A019C01AD0169817A818B819C81BA
:100170000E949104882309F477C020E030E0A901AF
:1001800069817A818B819C810E949104882351F43A
:1001900081E990E021E930E0F90120812870FC013B
:1001A000208309C081E990E021E930E0F901208154
:1001B0002360FC01208328E539E344E75FE369819C
:1001C0007A818B819C810E949104882344F488E980
:1001D00090E02FEF3FEFFC013183208334C020E01B
:1001E00034E244EF56E469817A818B819C810E94DC
:1001F000B305181634F488E990E0FC0111821082EE
:1002000022C008E910E020E030E040E053E46981DA
:100210007A818B819C810E94B805DC01CB019C0115
:10022000AD0160E074E284EF9AE40E949604DC0180
:10023000CB01BC01CD010E940805DC01CB01019777
:10024000F8019183808384E990E0FC01118210829F
:1002500089819A81AB81BC81809337019093380169
:10026000A0933901B0933A0100000F900F900F90C6
:100270000F90DF91CF911F910F910895CF93DF934E
:10028000CDB7DEB780E990E020E4FC01208381E96E
:1002900090E02BE0FC01208360E070E0CB010E9445
:1002A0009E000000DF91CF910895CF93DF93CDB7EB
:1002B000DEB780E990E0FC01108281E990E0FC016A
:1002C00010820000DF91CF910895CF93DF93CDB7D7
:1002D000DEB781E890E02BE0FC01208388E890E025
:1002E0002DE730E0FC01318320838FE690E022E0AF
:1002F000FC01208384E890E0FC011182108280914F
:100300000E0190910F01A0911001B0911101809305
:10031000330190933401A0933501B09336018FE5FA
:1003200090E02FE530E0F90120812068FC01208376
:100330000000DF91CF910895CF93DF93CDB7DEB763
:1003400081E890E0FC0110820000DF91CF910895D8
:10035000CF93DF93CDB7DEB781E080933201000009
:10036000DF91CF9108951F920F9200905F000F923E
:10037000112400905B000F922F933F934F935F9354
:100380006F937F938F939F93AF93BF93EF93FF935D
:10039000CF93DF93CDB7DEB78091330190913401D5
:1003A000A0913501B09136010197A109B10980935F
:1003B000330190933401A0933501B09336018091BD
:1003C000330190913401A0913501B0913601892B10
:1003D0008A2B8B2B91F40E94A80180910E019091A1
:1003E0000F01A0911001B0911101809333019093FE
:1003F0003401A0933501B09336010000DF91CF9115
:10040000FF91EF91BF91AF919F918F917F916F91EC
:100410005F914F913F912F910F9000925B000F9051
:1004200000925F000F901F901895CF93DF9300D03C
:1004300000D0CDB7DEB769837A838B839C838981B3
:100440009A81AB81BC8180930E0190930F01A093A0
:100450001001B093110180910E0190910F01A091B4
:100460001001B09111018093330190933401A09356
:100470003501B093360100000F900F900F900F9050
:10048000DF91CF910895CF93DF93CDB7DEB7A697D5
:100490000FB6F894DEBF0FBECDBF9EA38DA380E242
:1004A00090E0FC018081882F90E08170992721E005
:1004B000892B09F020E0298380E290E0FC01808113
:1004C000809582708A8380E290E0FC018081809533
:1004D00084708B8380E2E2E1F1E0DE011596019009
:1004E0000D928A95E1F788E08C838DA19EA1092E5B
:1004F000000CAA0BBB0B40E050E026E030E0841B70
:10050000950B2817390708F4DAC08A5B9F4FFC0166
:100510000C94880481E090E09EA38DA3D6C08981CD
:10052000882359F08A81882341F48B81882329F418
:1005300082E090E09EA38DA321C08981882359F495
:100540008A81882341F08B81882329F483E090E01D
:100550009EA38DA313C08981882359F48A8188239F
:1005600041F48B81882329F084E090E09EA38DA341
:1005700005C081E090E09EA38DA3A7C0A6C081E046
:1005800090E09EA38DA3A1C08981882359F48A811C
:10059000882341F08B81882329F485E090E09EA395
:1005A0008DA32DC08981882359F08A81882341F445
:1005B0008B81882329F482E090E09EA38DA31FC045
:1005C0008981882359F48A81882341F48B81882387
:1005D00029F084E090E09EA38DA311C08981882337
:1005E00009F070C08A81882309F06CC08B81882350
:1005F00009F068C081E090E09EA38DA363C062C053
:100600008981882359F48A81882341F48B81882346
:1006100029F086E090E09EA38DA32AC089818823DB
:1006200059F08A81882341F48B81882329F482E060
:1006300090E09EA38DA31CC08981882359F48A81F0
:10064000882341F08B81882329F483E090E09EA3E6
:100650008DA30EC089818823B9F58A818823A1F5ED
:100660008B81882389F581E090E09EA38DA32CC027
:100670002BC08981882359F48A81882341F08B819A
:10068000882329F485E090E09EA38DA31EC081E01D
:1006900090E09EA38DA319C08981882359F48A8193
:1006A000882341F48B81882329F086E090E09EA383
:1006B0008DA30BC081E090E09EA38DA306C01EA277
:1006C0001DA203C0000001C000008DA19EA1092E43
:1006D000000CAA0BBB0B40E050E026E030E0841B8E
:1006E000950B2817390708F4D7C0835B9F4FFC018F
:1006F0000C94880460E070E0CB010E949E00CCC0A6
:1007000080913B01882351F010923B0110923C01F3
:1007100060E070E0CB010E949E00BEC081E080934B
:100720003B0180913C01882F90E0880F991F880F32
:10073000991F9E012F5F3F4F820F931F0496FC016C
:1007400080819181A281B381BC01CD010E949E0074
:10075000A3C080913C018730E8F480913C018F5F19
:1007600080933C0180913C01882F90E0880F991F75
:10077000880F991F9E012F5F3F4F820F931F049692
:10078000FC0180819181A281B381BC01CD010E94D5
:100790009E0082C080913C01882F90E0880F991FB5
:1007A000880F991F9E012F5F3F4F820F931F049662
:1007B000FC0180819181A281B381BC01CD010E94A5
:1007C0009E006AC080913C018823E9F080913C0141
:1007D000815080933C0180913C01882F90E0880FEC
:1007E000991F880F991F9E012F5F3F4F820F931F04
:1007F0000496FC0180819181A281B381BC01CD016D
:100800000E949E0049C080913C01882F90E0880F93
:10081000991F880F991F9E012F5F3F4F820F931FD3
:100820000496FC0180819181A281B381BC01CD013C
:100830000E949E0031C080913C01882F90E0880F7B
:10084000991F880F991F9E012F5F3F4F820F931FA3
:100850000496FC0180819181A281B381BC01CD010C
:100860000E949E0019C080913C01882F90E0880F63
:10087000991F880F991F9E012F5F3F4F820F931F73
:100880000496FC0180819181A281B381BC01CD01DC
:100890000E949E0001C000008DA19EA1A6960FB6E9
:1008A000F894DEBF0FBECDBFDF91CF910895CF93F7
:1008B000DF9300D0CDB7DEB781E290E0FC0110827B
:1008C00082E290E02FEFFC01208384E290E020E4BC
:1008D000FC01208385E290E0FC0110820E9465010A
:1008E00064E670E080E090E00E9415020E943E0104
:1008F0001A82198289819A810E9443029A8389838C
:100900000000809132018823E1F310923201F2CF8E
:10091000EE0FFF1F0024001C0BBE0790F691E02D88
:1009200009940E943E0508F481E008950E94AA04FB
:100930000C9479050E94720558F00E946B0540F0F6
:1009400029F45F3F29F00C94620551110C94AD0518
:100950000C9468050E948A0568F39923B1F3552326
:1009600091F3951B550BBB27AA27621773078407C2
:1009700038F09F5F5F4F220F331F441FAA1FA9F358
:1009800035D00E2E3AF0E0E832D091505040E69546
:10099000001CCAF72BD0FE2F29D0660F771F881FA7
:1009A000BB1F261737074807AB07B0E809F0BB0B9A
:1009B000802DBF01FF2793585F4F3AF09E3F5105AE
:1009C00078F00C9462050C94AD055F3FE4F3983E1B
:1009D000D4F3869577956795B795F7959F5FC9F797
:1009E000880F911D9695879597F90895E1E0660F18
:1009F000771F881FBB1F621773078407BA0720F091
:100A0000621B730B840BBA0BEE1F88F7E0950895F9
:100A10000E940F056894B1110C94AD0508950E94D1
:100A2000920588F09F5798F0B92F9927B751B0F0E9
:100A3000E1F0660F771F881F991F1AF0BA95C9F762
:100A400014C0B13091F00E94AC05B1E008950C944F
:100A5000AC05672F782F8827B85F39F0B93FCCF302
:100A6000869577956795B395D9F73EF490958095DF
:100A7000709561957F4F8F4F9F4F0895990F000894
:100A8000550FAA0BE0E8FEEF16161706E807F90760
:100A9000C0F012161306E407F50798F0621B730BFB
:100AA000840B950B39F40A2661F0232B242B252B7C
:100AB00021F408950A2609F4A140A6958FEF811D1F
:100AC000811D089597F99F6780E870E060E00895C0
:100AD0009FEF80EC089500240A9416161706180656
:100AE0000906089500240A94121613061406050632
:100AF0000895092E0394000C11F4882352F0BB0FC3
:100B000040F4BF2B11F460FF04C06F5F7F4F8F4F25
:100B10009F4F089557FD9058440F551F59F05F3F60
:100B200071F04795880F97FB991F61F09F3F79F00F
:100B300087950895121613061406551FF2CF469591
:100B4000F1DF08C0161617061806991FF1CF869513
:100B50007105610508940895E894BB2766277727F7
:100B6000CB0197F908950E943E0508F48FEF089590
:100B70000E94CB050C9479050E946B0538F00E9409
:100B8000720520F0952311F00C9462050C94680511
:100B900011240C94AD050E948A0570F3959FC1F352
:100BA000950F50E0551F629FF001729FBB27F00D1B
:100BB000B11D639FAA27F00DB11DAA1F649F662770
:100BC000B00DA11D661F829F2227B00DA11D621FBF
:100BD000739FB00DA11D621F839FA00D611D221F79
:100BE000749F3327A00D611D231F849F600D211D5D
:100BF000822F762F6A2F11249F5750409AF0F1F0E0
:100C000088234AF0EE0FFF1FBB1F661F771F881F48
:100C100091505040A9F79E3F510580F00C94620519
:100C20000C94AD055F3FE4F3983ED4F38695779539
:100C30006795B795F795E7959F5FC1F7FE2B880FEE
:0E0C4000911D9695879597F90895F894FFCF2A
:100C4E00000000020000000075000000000001001E
:100C5E000000A4D082437BD49243A4D0A443719DC0
:100C6E00AE430000C4430000DC43A4F0F64300D0C2
:020C7E0002442E
:00000001FF
