:100000000C9446000C9465000C9465000C946500FB
:100010000C9465000C9465000C9465000C946500CC
:100020000C9465000C9465000C9465000C946500BC
:100030000C9465000C94A5010C9465000C9465006B
:100040000C9465000C9465000C9465000C9465009C
:100050000C9465000C9465000C9465000C9465008C
:100060000C9465000C9465000C9465000C9465007C
:100070000C9465000C9465000C9465000C9465006C
:100080000C9465000C9465000C94650011241FBE4F
:10009000CFEFD0E4DEBFCDBF11E0A0E0B1E0EAEFEA
:1000A000F9E000E00BBF02C007900D92AA39B1073A
:1000B000D9F721E0AAE9B1E001C01D92A53AB20743
:1000C000E1F70E9436030C94FB040C940000CF93DC
:1000D000DF9300D01F92CDB7DEB789837B836A831D
:1000E00089818A3031F48A819B81BC018DE00E9434
:1000F000670080EC90E0FC018081882F90E08072A6
:100100009927892BB1F386EC90E02981FC012083AB
:1001100080E090E00F900F900F90DF91CF910895C5
:100120000F931F93CF93DF9300D000D0CDB7DEB7EE
:1001300069837A838B839C8380919F019091A00136
:10014000A091A101B091A2019C01AD0169817A81C8
:100150008B819C810E946703882309F477C020E08B
:1001600030E0A90169817A818B819C810E946703BB
:10017000882351F481E990E021E930E0F901208100
:100180002870FC01208309C081E990E021E930E07A
:10019000F90120812360FC01208328E539E344E74D
:1001A0005FE369817A818B819C810E946703882348
:1001B00044F488E990E02FEF3FEFFC013183208386
:1001C00034C020E034E244EF56E469817A818B81C7
:1001D0009C810E948904181634F488E990E0FC019F
:1001E0001182108222C008E910E020E030E040E0F7
:1001F00053E469817A818B819C810E948E04DC01A9
:10020000CB019C01AD0160E074E284EF9AE40E94AE
:100210006C03DC01CB01BC01CD010E94DE03DC01DB
:10022000CB010197F8019183808384E990E0FC0180
:100230001182108289819A81AB81BC8180939F0158
:100240009093A001A093A101B093A20100000F9090
:100250000F900F900F90DF91CF911F910F91089504
:10026000CF93DF93CDB7DEB780E990E020E4FC01C7
:10027000208381E990E02BE0FC01208360E070E0C6
:10028000CB010E9490000000DF91CF910895CF93A1
:10029000DF93CDB7DEB780E990E0FC01108281E901
:1002A00090E0FC0110820000DF91CF910895CF9380
:1002B000DF93CDB7DEB781E890E02BE0FC0120832F
:1002C00088E890E02DE730E0FC01318320838FE661
:1002D00090E022E0FC01208384E890E0FC011182A0
:1002E000108280910E0190910F01A0911001B091A8
:1002F000110180939B0190939C01A0939D01B09369
:100300009E018FE590E02FE530E0F9012081206823
:10031000FC0120830000DF91CF910895CF93DF93FC
:10032000CDB7DEB781E890E0FC0110820000DF91DC
:10033000CF910895CF93DF93CDB7DEB781E080935F
:100340009A010000DF91CF9108951F920F920090C3
:100350005F000F92112400905B000F922F933F9348
:100360004F935F936F937F938F939F93AF93BF93BD
:10037000EF93FF93CF93DF93CDB7DEB780919B01CF
:1003800090919C01A0919D01B0919E010197A109BE
:10039000B10980939B0190939C01A0939D01B09320
:1003A0009E0180919B0190919C01A0919D01B09133
:1003B0009E01892B8A2B8B2B91F40E949A018091AC
:1003C0000E0190910F01A0911001B0911101809345
:1003D0009B0190939C01A0939D01B0939E0100000E
:1003E000DF91CF91FF91EF91BF91AF919F918F914D
:1003F0007F916F915F914F913F912F910F9000925C
:100400005B000F9000925F000F901F901895CF93A4
:10041000DF9300D000D0CDB7DEB769837A838B83BA
:100420009C8389819A81AB81BC8180930E019093DA
:100430000F01A0931001B093110180910E019091D2
:100440000F01A0911001B091110180939B01909335
:100450009C01A0939D01B0939E0100000F900F900E
:100460000F900F90DF91CF910895CF93DF93CDB789
:10047000DEB7CB58D1090FB6F894DEBF0FBECDBFA3
:100480009E0126573F4FF9019183808380E290E0DF
:10049000FC018081882F90E08170992721E0892BD1
:1004A00009F020E029838CE6E2E1F1E0DE01139619
:1004B00001900D928A95E1F7CE0181599F4F2BE172
:1004C000EEE7F1E0DC0101900D922A95E1F78BE176
:1004D0008A83CE0186579F4FFC01808191818130B4
:1004E0009105C9F0823091051CF4892B39F045C083
:1004F00082309105F9F0039789F13FC0CE0186570C
:100500009F4F21E030E0FC01318320831092A30152
:100510001092A4013AC08981882319F082E090E00A
:1005200002C081E090E09E0126573F4FF901918380
:1005300080832BC09091A3018A81981728F189812B
:10054000882319F083E090E002C082E090E09E01F1
:1005500026573F4FF9019183808316C089818823F4
:1005600019F083E090E002C081E090E09E01265700
:100570003F4FF9019183808308C0CE0186579F4F7A
:10058000FC011182108201C00000CE0186579F4FEE
:10059000FC01808191818130910579F08230910553
:1005A0001CF4892B21F052C0029761F04FC060E02B
:1005B00070E0CB010E94900049C01092A3011092FC
:1005C000A40144C09091A3018A81981728F0109249
:1005D000A3011092A40139C08091A401282F30E01A
:1005E0008091A301882F90E0AE0141595F4F840FA5
:1005F000951FFC018081082E000C990B28173907E4
:10060000ECF48091A301882F90E0880F991F880F48
:10061000991F9E012F5F3F4F820F931F0296FC018F
:1006200080819181A281B381BC01CD010E949000A3
:100630008091A4018F5F8093A40107C01092A40150
:100640008091A3018F5F8093A3010000CE018657A4
:100650009F4FFC0180819181C557DF4F0FB6F89401
:10066000DEBF0FBECDBFDF91CF910895CF93DF9353
:1006700000D0CDB7DEB781E290E0FC01108282E2CB
:1006800090E02FEFFC01208384E290E020E4FC0165
:10069000208385E290E0FC0110820E94570162E411
:1006A00070E080E090E00E9407020E9430011A8210
:1006B000198289819A810E9435029A838983000078
:1006C00080919A018823E1F310929A01F2CF0E945F
:1006D000140408F481E008950E9480030C944F04F0
:1006E0000E94480458F00E94410440F029F45F3F02
:1006F00029F00C94380451110C9483040C943E049A
:100700000E94600468F39923B1F3552391F3951B7C
:10071000550BBB27AA2762177307840738F09F5F22
:100720005F4F220F331F441FAA1FA9F335D00E2E8F
:100730003AF0E0E832D091505040E695001CCAF7FC
:100740002BD0FE2F29D0660F771F881FBB1F2617BF
:1007500037074807AB07B0E809F0BB0B802DBF0196
:10076000FF2793585F4F3AF09E3F510578F00C9465
:1007700038040C9483045F3FE4F3983ED4F38695E9
:1007800077956795B795F7959F5FC9F7880F911D86
:100790009695879597F90895E1E0660F771F881F72
:1007A000BB1F621773078407BA0720F0621B730B25
:1007B000840BBA0BEE1F88F7E09508950E94E503BD
:1007C0006894B1110C94830408950E94680488F021
:1007D0009F5798F0B92F9927B751B0F0E1F0660F05
:1007E000771F881F991F1AF0BA95C9F714C0B13046
:1007F00091F00E948204B1E008950C948204672F66
:10080000782F8827B85F39F0B93FCCF38695779574
:100810006795B395D9F73EF490958095709561955D
:100820007F4F8F4F9F4F0895990F0008550FAA0BC8
:10083000E0E8FEEF16161706E807F907C0F01216F3
:100840001306E407F50798F0621B730B840B950BF6
:1008500039F40A2661F0232B242B252B21F408954B
:100860000A2609F4A140A6958FEF811D811D0895E8
:1008700097F99F6780E870E060E008959FEF80EC53
:10088000089500240A9416161706180609060895F6
:1008900000240A9412161306140605060895092E5C
:1008A0000394000C11F4882352F0BB0F40F4BF2BCB
:1008B00011F460FF04C06F5F7F4F8F4F9F4F08950B
:1008C00057FD9058440F551F59F05F3F71F0479501
:1008D000880F97FB991F61F09F3F79F087950895E6
:1008E000121613061406551FF2CF4695F1DF08C005
:1008F000161617061806991FF1CF86957105610522
:1009000008940895E894BB2766277727CB0197F9C9
:1009100008950E94140408F48FEF08950E94A10422
:100920000C944F040E94410438F00E94480420F0C7
:10093000952311F00C9438040C943E0411240C946B
:1009400083040E94600470F3959FC1F3950F50E0FB
:10095000551F629FF001729FBB27F00DB11D639F71
:10096000AA27F00DB11DAA1F649F6627B00DA11D17
:10097000661F829F2227B00DA11D621F739FB00DBD
:10098000A11D621F839FA00D611D221F749F33272D
:10099000A00D611D231F849F600D211D822F762FC6
:1009A0006A2F11249F5750409AF0F1F088234AF0A3
:1009B000EE0FFF1FBB1F661F771F881F915050400F
:1009C000A9F79E3F510580F00C9438040C948304E1
:1009D0005F3FE4F3983ED4F3869577956795B79596
:1009E000F795E7959F5FC1F7FE2B880F911D9695B0
:0A09F000879597F90895F894FFCF5A
:1009FA000000000200000000670000000000010083
:100A0A00000000D024440000000000D0244400006C
:100A1A00000000D024440000000000D0244400D08C
:100A2A00024400D0244400901B44A4F0F643000082
:100A3A0000001FD51244000000001FD51244000018
:100A4A0000001FD51244000000001FD5124400D038
:100A5A0002441FD5124400D024441FD5124400D0AA
:100A6A000244A4F0F6430000DC4300000000030146
:100A7A000301030108040408180403010301030124
:0A0A8A00080404040404040810002A
:00000001FF
